{
  "contractName": "TokenFarm",
  "abi": [
    {
      "inputs": [
        {
          "internalType": "contract DappToken",
          "name": "_dappToken",
          "type": "address"
        },
        {
          "internalType": "contract DaiToken",
          "name": "_daiToken",
          "type": "address"
        }
      ],
      "stateMutability": "nonpayable",
      "type": "constructor"
    },
    {
      "inputs": [],
      "name": "daiToken",
      "outputs": [
        {
          "internalType": "contract DaiToken",
          "name": "",
          "type": "address"
        }
      ],
      "stateMutability": "view",
      "type": "function"
    },
    {
      "inputs": [],
      "name": "dappToken",
      "outputs": [
        {
          "internalType": "contract DappToken",
          "name": "",
          "type": "address"
        }
      ],
      "stateMutability": "view",
      "type": "function"
    },
    {
      "inputs": [
        {
          "internalType": "address",
          "name": "",
          "type": "address"
        }
      ],
      "name": "hasStaked",
      "outputs": [
        {
          "internalType": "bool",
          "name": "",
          "type": "bool"
        }
      ],
      "stateMutability": "view",
      "type": "function"
    },
    {
      "inputs": [
        {
          "internalType": "address",
          "name": "",
          "type": "address"
        }
      ],
      "name": "isStaking",
      "outputs": [
        {
          "internalType": "bool",
          "name": "",
          "type": "bool"
        }
      ],
      "stateMutability": "view",
      "type": "function"
    },
    {
      "inputs": [],
      "name": "name",
      "outputs": [
        {
          "internalType": "string",
          "name": "",
          "type": "string"
        }
      ],
      "stateMutability": "view",
      "type": "function"
    },
    {
      "inputs": [],
      "name": "owner",
      "outputs": [
        {
          "internalType": "address",
          "name": "",
          "type": "address"
        }
      ],
      "stateMutability": "view",
      "type": "function"
    },
    {
      "inputs": [
        {
          "internalType": "uint256",
          "name": "",
          "type": "uint256"
        }
      ],
      "name": "stakers",
      "outputs": [
        {
          "internalType": "address",
          "name": "",
          "type": "address"
        }
      ],
      "stateMutability": "view",
      "type": "function"
    },
    {
      "inputs": [
        {
          "internalType": "address",
          "name": "",
          "type": "address"
        }
      ],
      "name": "stakingBalance",
      "outputs": [
        {
          "internalType": "uint256",
          "name": "",
          "type": "uint256"
        }
      ],
      "stateMutability": "view",
      "type": "function"
    },
    {
      "inputs": [
        {
          "internalType": "uint256",
          "name": "_amount",
          "type": "uint256"
        }
      ],
      "name": "stakeTokens",
      "outputs": [],
      "stateMutability": "nonpayable",
      "type": "function"
    },
    {
      "inputs": [],
      "name": "issueToken",
      "outputs": [],
      "stateMutability": "nonpayable",
      "type": "function"
    },
    {
      "inputs": [],
      "name": "unstakeTokens",
      "outputs": [],
      "stateMutability": "nonpayable",
      "type": "function"
    }
  ],
  "bytecode": "0x60806040526040518060400160405280601081526020017f204461707020546f6b656e204661726d00000000000000000000000000000000815250600090805190602001906200005192919062000150565b503480156200005f57600080fd5b506040516200144c3803806200144c83398181016040528101906200008591906200022e565b81600360006101000a81548173ffffffffffffffffffffffffffffffffffffffff021916908373ffffffffffffffffffffffffffffffffffffffff16021790555080600260006101000a81548173ffffffffffffffffffffffffffffffffffffffff021916908373ffffffffffffffffffffffffffffffffffffffff16021790555033600160006101000a81548173ffffffffffffffffffffffffffffffffffffffff021916908373ffffffffffffffffffffffffffffffffffffffff16021790555050506200036f565b8280546200015e90620002d1565b90600052602060002090601f016020900481019282620001825760008555620001ce565b82601f106200019d57805160ff1916838001178555620001ce565b82800160010185558215620001ce579182015b82811115620001cd578251825591602001919060010190620001b0565b5b509050620001dd9190620001e1565b5090565b5b80821115620001fc576000816000905550600101620001e2565b5090565b60008151905062000211816200033b565b92915050565b600081519050620002288162000355565b92915050565b6000806040838503121562000248576200024762000336565b5b6000620002588582860162000217565b92505060206200026b8582860162000200565b9150509250929050565b60006200028282620002b1565b9050919050565b6000620002968262000275565b9050919050565b6000620002aa8262000275565b9050919050565b600073ffffffffffffffffffffffffffffffffffffffff82169050919050565b60006002820490506001821680620002ea57607f821691505b6020821081141562000301576200030062000307565b5b50919050565b7f4e487b7100000000000000000000000000000000000000000000000000000000600052602260045260246000fd5b600080fd5b620003468162000289565b81146200035257600080fd5b50565b62000360816200029d565b81146200036c57600080fd5b50565b6110cd806200037f6000396000f3fe608060405234801561001057600080fd5b50600436106100a95760003560e01c80638da5cb5b116100715780638da5cb5b14610166578063a1ee8c7814610184578063a5ce413b1461018e578063be22f54614610198578063c93c8f34146101b6578063fd5e6dd1146101e6576100a9565b806306fdde03146100ae57806345bc78ab146100cc5780635eb186f8146100fc5780636f49712b1461011a5780637547c7a31461014a575b600080fd5b6100b6610216565b6040516100c39190610ce7565b60405180910390f35b6100e660048036038101906100e19190610aa7565b6102a4565b6040516100f39190610d69565b60405180910390f35b6101046102bc565b6040516101119190610ccc565b60405180910390f35b610134600480360381019061012f9190610aa7565b6102e2565b6040516101419190610c96565b60405180910390f35b610164600480360381019061015f9190610b01565b610302565b005b61016e6105ed565b60405161017b9190610c1b565b60405180910390f35b61018c610613565b005b61019661080c565b005b6101a06109e3565b6040516101ad9190610cb1565b60405180910390f35b6101d060048036038101906101cb9190610aa7565b610a09565b6040516101dd9190610c96565b60405180910390f35b61020060048036038101906101fb9190610b01565b610a29565b60405161020d9190610c1b565b60405180910390f35b6000805461022390610eb9565b80601f016020809104026020016040519081016040528092919081815260200182805461024f90610eb9565b801561029c5780601f106102715761010080835404028352916020019161029c565b820191906000526020600020905b81548152906001019060200180831161027f57829003601f168201915b505050505081565b60046020528060005260406000206000915090505481565b600360009054906101000a900473ffffffffffffffffffffffffffffffffffffffff1681565b60066020528060005260406000206000915054906101000a900460ff1681565b60008111610345576040517f08c379a000000000000000000000000000000000000000000000000000000000815260040161033c90610d49565b60405180910390fd5b600260009054906101000a900473ffffffffffffffffffffffffffffffffffffffff1673ffffffffffffffffffffffffffffffffffffffff166323b872dd3330846040518463ffffffff1660e01b81526004016103a493929190610c36565b602060405180830381600087803b1580156103be57600080fd5b505af11580156103d2573d6000803e3d6000fd5b505050506040513d601f19601f820116820180604052508101906103f69190610ad4565b5080600460003373ffffffffffffffffffffffffffffffffffffffff1673ffffffffffffffffffffffffffffffffffffffff168152602001908152602001600020546104429190610da0565b600460003373ffffffffffffffffffffffffffffffffffffffff1673ffffffffffffffffffffffffffffffffffffffff16815260200190815260200160002081905550600560003373ffffffffffffffffffffffffffffffffffffffff1673ffffffffffffffffffffffffffffffffffffffff16815260200190815260200160002060009054906101000a900460ff1661053a576007339080600181540180825580915050600190039060005260206000200160009091909190916101000a81548173ffffffffffffffffffffffffffffffffffffffff021916908373ffffffffffffffffffffffffffffffffffffffff1602179055505b6001600660003373ffffffffffffffffffffffffffffffffffffffff1673ffffffffffffffffffffffffffffffffffffffff16815260200190815260200160002060006101000a81548160ff0219169083151502179055506001600560003373ffffffffffffffffffffffffffffffffffffffff1673ffffffffffffffffffffffffffffffffffffffff16815260200190815260200160002060006101000a81548160ff02191690831515021790555050565b600160009054906101000a900473ffffffffffffffffffffffffffffffffffffffff1681565b600160009054906101000a900473ffffffffffffffffffffffffffffffffffffffff1673ffffffffffffffffffffffffffffffffffffffff163373ffffffffffffffffffffffffffffffffffffffff16146106a3576040517f08c379a000000000000000000000000000000000000000000000000000000000815260040161069a90610d29565b60405180910390fd5b60005b600780549050811015610809576000600782815481106106c9576106c8610f92565b5b9060005260206000200160009054906101000a900473ffffffffffffffffffffffffffffffffffffffff1690506000600460008373ffffffffffffffffffffffffffffffffffffffff1673ffffffffffffffffffffffffffffffffffffffff16815260200190815260200160002054905060008111156107f457600360009054906101000a900473ffffffffffffffffffffffffffffffffffffffff1673ffffffffffffffffffffffffffffffffffffffff1663a9059cbb83836040518363ffffffff1660e01b81526004016107a0929190610c6d565b602060405180830381600087803b1580156107ba57600080fd5b505af11580156107ce573d6000803e3d6000fd5b505050506040513d601f19601f820116820180604052508101906107f29190610ad4565b505b5050808061080190610eeb565b9150506106a6565b50565b6000600460003373ffffffffffffffffffffffffffffffffffffffff1673ffffffffffffffffffffffffffffffffffffffff16815260200190815260200160002054905060008111610893576040517f08c379a000000000000000000000000000000000000000000000000000000000815260040161088a90610d09565b60405180910390fd5b600260009054906101000a900473ffffffffffffffffffffffffffffffffffffffff1673ffffffffffffffffffffffffffffffffffffffff1663a9059cbb33836040518363ffffffff1660e01b81526004016108f0929190610c6d565b602060405180830381600087803b15801561090a57600080fd5b505af115801561091e573d6000803e3d6000fd5b505050506040513d601f19601f820116820180604052508101906109429190610ad4565b506000600460003373ffffffffffffffffffffffffffffffffffffffff1673ffffffffffffffffffffffffffffffffffffffff168152602001908152602001600020819055506000600660003373ffffffffffffffffffffffffffffffffffffffff1673ffffffffffffffffffffffffffffffffffffffff16815260200190815260200160002060006101000a81548160ff02191690831515021790555050565b600260009054906101000a900473ffffffffffffffffffffffffffffffffffffffff1681565b60056020528060005260406000206000915054906101000a900460ff1681565b60078181548110610a3957600080fd5b906000526020600020016000915054906101000a900473ffffffffffffffffffffffffffffffffffffffff1681565b600081359050610a7781611052565b92915050565b600081519050610a8c81611069565b92915050565b600081359050610aa181611080565b92915050565b600060208284031215610abd57610abc610fc1565b5b6000610acb84828501610a68565b91505092915050565b600060208284031215610aea57610ae9610fc1565b5b6000610af884828501610a7d565b91505092915050565b600060208284031215610b1757610b16610fc1565b5b6000610b2584828501610a92565b91505092915050565b610b3781610df6565b82525050565b610b4681610e08565b82525050565b610b5581610e3e565b82525050565b610b6481610e50565b82525050565b6000610b7582610d84565b610b7f8185610d8f565b9350610b8f818560208601610e86565b610b9881610fc6565b840191505092915050565b6000610bb0601b83610d8f565b9150610bbb82610fd7565b602082019050919050565b6000610bd3601583610d8f565b9150610bde82611000565b602082019050919050565b6000610bf6601283610d8f565b9150610c0182611029565b602082019050919050565b610c1581610e34565b82525050565b6000602082019050610c306000830184610b2e565b92915050565b6000606082019050610c4b6000830186610b2e565b610c586020830185610b2e565b610c656040830184610c0c565b949350505050565b6000604082019050610c826000830185610b2e565b610c8f6020830184610c0c565b9392505050565b6000602082019050610cab6000830184610b3d565b92915050565b6000602082019050610cc66000830184610b4c565b92915050565b6000602082019050610ce16000830184610b5b565b92915050565b60006020820190508181036000830152610d018184610b6a565b905092915050565b60006020820190508181036000830152610d2281610ba3565b9050919050565b60006020820190508181036000830152610d4281610bc6565b9050919050565b60006020820190508181036000830152610d6281610be9565b9050919050565b6000602082019050610d7e6000830184610c0c565b92915050565b600081519050919050565b600082825260208201905092915050565b6000610dab82610e34565b9150610db683610e34565b9250827fffffffffffffffffffffffffffffffffffffffffffffffffffffffffffffffff03821115610deb57610dea610f34565b5b828201905092915050565b6000610e0182610e14565b9050919050565b60008115159050919050565b600073ffffffffffffffffffffffffffffffffffffffff82169050919050565b6000819050919050565b6000610e4982610e62565b9050919050565b6000610e5b82610e62565b9050919050565b6000610e6d82610e74565b9050919050565b6000610e7f82610e14565b9050919050565b60005b83811015610ea4578082015181840152602081019050610e89565b83811115610eb3576000848401525b50505050565b60006002820490506001821680610ed157607f821691505b60208210811415610ee557610ee4610f63565b5b50919050565b6000610ef682610e34565b91507fffffffffffffffffffffffffffffffffffffffffffffffffffffffffffffffff821415610f2957610f28610f34565b5b600182019050919050565b7f4e487b7100000000000000000000000000000000000000000000000000000000600052601160045260246000fd5b7f4e487b7100000000000000000000000000000000000000000000000000000000600052602260045260246000fd5b7f4e487b7100000000000000000000000000000000000000000000000000000000600052603260045260246000fd5b600080fd5b6000601f19601f8301169050919050565b7f7374616b696e672062616c616e63652063616e6e6f7420626520300000000000600082015250565b7f63616c6c6572206d757374206265206f776e6572200000000000000000000000600082015250565b7f416d6f756e742063616e6e6f7420626520300000000000000000000000000000600082015250565b61105b81610df6565b811461106657600080fd5b50565b61107281610e08565b811461107d57600080fd5b50565b61108981610e34565b811461109457600080fd5b5056fea264697066735822122020e7b831d7dad9b997514b7a775c570628ad19c402a156c5870274acc19ab53164736f6c63430008070033",
  "immutableReferences": {},
  "source": "pragma solidity ^0.8.7;\r\n\r\nimport \"./DaiToken.sol\";\r\nimport \"./DappToken.sol\";\r\n\r\n\r\ncontract TokenFarm {\r\n    string public name = \" Dapp Token Farm\";\r\n    address public owner;\r\n    DaiToken public daiToken;\r\n    DappToken public dappToken;\r\n  \r\n    \r\n    mapping( address => uint ) public stakingBalance;\r\n    mapping( address => bool ) public hasStaked;\r\n    mapping( address => bool ) public isStaking;\r\n\r\n    address[] public stakers;\r\n    \r\n    constructor(DappToken _dappToken, DaiToken _daiToken) {\r\n        dappToken = _dappToken;\r\n        daiToken = _daiToken;\r\n        owner = msg.sender;\r\n\r\n    }\r\n\r\n    function stakeTokens(uint _amount) public {\r\n\r\n        require(_amount > 0, \"Amount cannot be 0\");\r\n\r\n        daiToken.transferFrom(msg.sender, address(this), _amount);\r\n        // Update staking balance\r\n        stakingBalance[msg.sender] = stakingBalance[msg.sender] + _amount;\r\n        \r\n        if(!hasStaked[msg.sender]){\r\n            stakers.push(msg.sender);\r\n\r\n        }\r\n\r\n        isStaking[msg.sender] = true;\r\n        hasStaked[msg.sender] = true; \r\n\r\n         \r\n\r\n    }\r\n\r\n    function issueToken() public {\r\n        require(msg.sender == owner, \"caller must be owner \");\r\n        for (uint i = 0; i < stakers.length ; i++){\r\n            address recipient = stakers[i];\r\n            uint balance = stakingBalance[recipient];\r\n            if(balance > 0){\r\n            dappToken.transfer(recipient, balance);\r\n            }\r\n        }\r\n    }\r\n\r\n     // Unstaking Tokens (Withdraw)\r\n    function unstakeTokens() public {\r\n        // Fetch staking balance\r\n        uint balance = stakingBalance[msg.sender];\r\n\r\n        // Require amount greater than 0\r\n        require(balance > 0, \"staking balance cannot be 0\");\r\n\r\n        // Transfer Mock Dai tokens to this contract for staking\r\n        daiToken.transfer(msg.sender, balance);\r\n\r\n        // Reset staking balance\r\n        stakingBalance[msg.sender] = 0;\r\n\r\n        // Update staking status\r\n        isStaking[msg.sender] = false;\r\n    }\r\n\r\n\r\n}\r\n\r\n\r\n",
  "sourcePath": "C:\\Users\\shukl\\Desktop\\Defi Dapp\\defi_tutorial\\src\\contracts\\TokenFarm.sol",
  "compiler": {
    "name": "solc",
    "version": "0.8.7+commit.e28d00a7.Emscripten.clang"
  },
  "schemaVersion": "3.4.7",
  "updatedAt": "2022-06-30T17:14:00.398Z",
  "devdoc": {
    "kind": "dev",
    "methods": {},
    "version": 1
  },
  "userdoc": {
    "kind": "user",
    "methods": {},
    "version": 1
  }
}